:020000040800F2
:100000002807002001260008F5020008F702000872
:10001000FB020008FF0200080303000800000000C4
:1000200000000000000000000000000007030008BE
:1000300009030008000000000B0300080D0300087E
:100040001B2600081B2600081B2600081B2600088C
:100050001B2600081B2600081B2600081B2600087C
:100060001B2600081B2600081B2600081B2600086C
:100070001B2600081B2600081B2600081B2600085C
:100080001B2600081B2600081B2600081B2600084C
:100090001B2600081B2600081B2600081B2600083C
:1000A0001B2600081B2600081B2600081B2600082C
:1000B0001B2600081B2600081B2600081B2600081C
:1000C0001B2600081B2600081B2600081B2600080C
:1000D0001B2600081B260008132500081B26000805
:1000E0001B2600081B2600081B2600081B260008EC
:1000F0001B2600081B2600081B2600081B260008DC
:100100001B2600081B2600081B2600081B260008CB
:100110001B260008CB250008C71300080F1F000886
:100120001B2600081B2600081B2600081B260008AB
:1001300000F002F800F03AF80AA090E8000C8244BF
:100140008344AAF10107DA4501D100F02FF8AFF29C
:10015000090EBAE80F0013F0010F18BFFB1A43F0A5
:1001600001031847483F0000683F0000103A24BFD1
:1001700078C878C1FAD8520724BF30C830C144BF0C
:1001800004680C607047000000230024002500264E
:10019000103A28BF78C1FBD8520728BF30C148BFEA
:1001A0000B6070471FB51FBD10B510BD03F04CFFAD
:1001B0001146FFF7F7FF00F009F803F06AFF03B4F8
:1001C000FFF7F2FF03BC02F04BF9000002F0DEF88B
:1001D0004FF4A06002F0B8FF4FF4165002F0A6F9F9
:1001E00000F0AAF901F0C6F817214EF65F2000F0E2
:1001F0005BFC17214EF65F2000F0BCF917214EF68C
:100200005F2000F046FA17214EF65F2000F0C1FA99
:1002100017214EF65F2000F03AFB17214EF65F20C3
:1002200000F0C0FB41F61F4140F2E73001F076F8E4
:1002300041F61F4140F2E73001F03CFE00F0C6FC01
:100240004FF4FA6002F0DFF848E0254800783128E2
:1002500006D10120234908702349086000F034FDCD
:100260001F480078322807D102201E49087000205C
:100270001D49086000F028FD19480078332814D182
:1002800003201849087019480078012801D100F0AE
:10029000C8FD16480078022801D100F003FE13487B
:1002A0000078032801D100F03EFE0D480078342884
:1002B00014D104200B4908700D480078012801D1A1
:1002C00000F026FF0A480078022801D100F061FF03
:1002D00007480078032801D100F09CFFB5E7000033
:1002E000AE00002000000020B0012142900000205C
:1002F00091000020704700BFFEE700BFFEE700BF8F
:10030000FEE700BFFEE77047704770477047000088
:100310000CB50020019000906C48006840F48030DB
:100320006A49086000BF6948006800F40030009026
:100330000198401C0190009818B90198B0F5A06F81
:10034000F1D16248006800F4003010B10120009043
:1003500001E0002000900098012843D15C4800682B
:1003600040F010005A4908600846006820F0030079
:1003700008600846006840F0020008605348406882
:10038000524948600846406848600846406840F462
:10039000806048600846406820F47C104860084649
:1003A000406840F4E81048600846006840F08070FB
:1003B000086000BF4548006800F000700028F9D0D0
:1003C0004248406820F003004049486008464068C1
:1003D00040F00200486000BF3C48406800F00C005C
:1003E0000828F9D10CBD10B5FFF792FF10BD10B56C
:1003F0003648006840F0010034490860084640680B
:10040000344908403149486008460068324908408C
:100410002E4908600846006820F4802008600846DD
:10042000406820F4FE0048604FF41F008860FFF72A
:10043000DAFF4FF000602949086010BD10B50021B7
:1004400000200022214B5B6803F00C0121B104293C
:1004500006D0082928D107E0214B224C236027E051
:100460001F4B204C236023E0184B5B6803F4701093
:10047000164B5B6803F48032022303EB904022B9F1
:10048000194B4343174C23600DE0104B5B6803F49A
:10049000003323B1144B4343124C236003E0104B51
:1004A0004343104C236003E00D4B0E4C236000BF10
:1004B00000BF064B5B68C3F303130C4CE15C094BB4
:1004C0001B68CB40074C236010BD000000100240A9
:1004D000002002400000FFF8FFFFF6FE08ED00E0FC
:1004E00000127A000400002000093D0008000020EE
:1004F00008B50121242002F0BFFB4FF48070ADF855
:10050000000010208DF8030003208DF802006946DA
:10051000164802F0F5F84FF48071144802F09DF986
:100520000420ADF800006946114802F0E9F8042102
:100530000F4802F092F908BD08B50121042002F02D
:100540009BFB4FF48050ADF8000010208DF80300A5
:1005500003208DF802006946044802F0D1F84FF4F8
:100560008071024802F07BF908BD000000080140DC
:100570000014014030B589B005460C4601210846FB
:1005800002F087FB0121052002F076FB0121092002
:1005900002F072FB0121FC4802F083F90121FB48C3
:1005A00002F07FF94FF40040ADF8200018208DF8DC
:1005B000230003208DF8220008A9F54802F0A0F8D6
:1005C0000820ADF8200018208DF8230003208DF8B6
:1005D000220008A9EF4802F093F84FF48060ADF8CC
:1005E000200018208DF8230003208DF8220008A990
:1005F000E84802F085F84FF40060ADF820001820BC
:100600008DF8230003208DF8220008A9E14802F0AC
:1006100077F8ADF81850ADF814400020ADF81A0086
:10062000ADF8160005A94FF0804002F0CFFE702013
:10063000ADF804000120ADF806000220ADF80C0072
:1006400001A9400702F0FFFE01A94FF0804002F02F
:100650003CFF01A94FF0804002F084FF01A94FF058
:10066000804002F0CAFF0821C80603F03BFB0821C6
:10067000C80603F040FB0821C80603F049FB082127
:10068000C80603F04EFB0121880703F0FBF909B00F
:1006900030BD30B589B005460C460121022002F07C
:1006A000F8FA0121052002F0E7FA0121092002F001
:1006B000E3FA4020ADF8200018208DF82300032035
:1006C0008DF8220008A9B24802F01AF88020ADF88F
:1006D000200018208DF8230003208DF8220008A99F
:1006E000AB4802F00DF80120ADF8200018208DF87D
:1006F000230003208DF8220008A9A64802F000F884
:100700000220ADF8200018208DF8230003208DF87A
:10071000220008A99F4801F0F3FFADF81850ADF88A
:1007200014400020ADF81A00ADF8160005A99A484B
:1007300002F04CFE7020ADF804000120ADF8060078
:100740000220ADF80C0001A9934802F07CFE01A93B
:10075000914802F0BAFE01A98F4802F003FF01A9F7
:100760008D4802F04AFF08218B4803F0BBFA0821AC
:10077000894803F0C0FA0821874803F0C9FA082124
:10078000854803F0CEFA0121834803F07BF909B0D4
:1007900030BD30B589B005460C460121042002F079
:1007A00078FA0121092002F067FA4020ADF8200014
:1007B00018208DF8230003208DF8220008A9754821
:1007C00001F09EFF8020ADF8200018208DF8230056
:1007D00003208DF8220008A96E4801F091FF4FF424
:1007E0008070ADF8200018208DF8230003208DF8CC
:1007F000220008A9674801F083FF4FF40070ADF8AC
:10080000200018208DF8230003208DF8220008A96D
:10081000604801F075FFADF81850ADF814400020A5
:10082000ADF81A00ADF8160005A95C4802F0CEFD3F
:100830007020ADF804000120ADF806000220ADF8EC
:100840000C0001A9554802F0FEFD01A9534802F031
:100850003CFE01A9514802F085FE01A94F4802F073
:10086000CCFE08214D4803F03DFA08214B4803F027
:1008700042FA0821494803F04BFA0821474803F09F
:1008800050FA0121454803F0FDF809B030BD30B5FC
:1008900089B005460C460121082002F0FAF9012131
:1008A000052002F0E9F90120ADF8200018208DF8AC
:1008B000230003208DF8220008A9354801F020FF0D
:1008C0000220ADF8200018208DF8230003208DF8B9
:1008D000220008A92E4801F013FF0420ADF82000E3
:1008E00018208DF8230003208DF8220008A928483D
:1008F00001F006FF0820ADF8200018208DF8230035
:1009000003208DF8220008A9214801F0F9FEADF876
:100910001850ADF814400020ADF81A00ADF81600DC
:1009200005A91F4802F052FD7020ADF80400012017
:10093000ADF806000220ADF80C0001A9184802F03D
:1009400082FD01A9164802F0C0FD01A9144802F079
:1009500009FE01A9124802F050FE0821104803F0D8
:10096000C1F908210E4803F0C6F908210C4803F02C
:10097000CFF908210A4803F0D4F90121084803F00F
:1009800081F809B030BD00000003180000023000FB
:1009900000080140000C0140000400400008004035
:1009A000000C004030B589B005460C4601214803D3
:1009B00002F062F90121112002F05EF94020ADF849
:1009C000200018208DF8230003208DF8220008A9AC
:1009D000794801F095FE8020ADF8200018208DF8B0
:1009E000230003208DF8220008A9734801F088FE37
:1009F0004FF48070ADF8200018208DF823000320FC
:100A00008DF8220008A96C4801F07AFE4FF40070BE
:100A1000ADF8200018208DF8230003208DF8220067
:100A200008A9654801F06CFEADF81850ADF8144007
:100A30000020ADF81A00ADF8160005A95F4802F0D5
:100A4000C5FC7020ADF804000120ADF806000220BE
:100A5000ADF80C0001A9594802F0F5FC01A957486E
:100A600002F033FD01A9554802F07CFD01A953486D
:100A700002F0C3FD0821514803F034F908214F4822
:100A800003F039F908214D4803F042F908214B4899
:100A900003F047F90121494803F000F801214748D4
:100AA00002F0F0FF09B030BD30B589B005460C4604
:100AB0000121C80202F0E0F80121052002F0DCF873
:100AC0000121092002F0D8F84FF48070ADF8200021
:100AD00018208DF8230003208DF8220008A938483B
:100AE00001F00EFE4FF48040ADF8200018208DF884
:100AF000230003208DF8220008A9324801F000FEEF
:100B00004FF48040ADF8200018208DF8230003201A
:100B10008DF8220008A92B4801F0F2FD4FF40040A7
:100B2000ADF8200018208DF8230003208DF8220056
:100B300008A9244801F0E4FDADF81850ADF81440C0
:100B40000020ADF81A00ADF8160005A91E4802F005
:100B50003DFC7020ADF804000120ADF80600022035
:100B6000ADF80C0001A9184802F06DFC01A9164867
:100B700002F0ABFC01A9144802F0F4FC01A91248F0
:100B800002F03BFD0821104803F0ACF808210E48A4
:100B900003F0B1F808210C4803F0BAF808210A481C
:100BA00003F0BFF80121084802F078FF0121064850
:100BB00002F068FF09B030BD001001400034014070
:100BC00000080140000C0140002C014010B54FF41A
:100BD0004861C80503F0F0F940F6AC514FF0804091
:100BE00003F0ECF940F6E441FE4803F0E7F94FF476
:100BF0006161880603F0E4F941F26801FA4803F004
:100C0000DFF941F20C71F74803F0D4F941F2446185
:100C1000F44803F0D1F941F69C01F44803F0CEF911
:100C200041F22431F14803F0CBF941F29411EF483D
:100C300003F0C0F910BD10B5ED48008841F64C52E4
:100C4000101A81B24FF0804003F0B4F9E9480088EF
:100C500000F5FA6081B2E84803F0AEF910BD10B5B6
:100C60004FF44861C80503F0A7F941F27C514FF0F9
:100C7000804003F0A3F941F25041DA4803F09EF9B5
:100C800041F25041880603F09BF941F26801D648D1
:100C900003F096F941F20C71D24803F08BF940F65B
:100CA000D861D04803F088F940F6B831CF4803F056
:100CB00085F940F6B831CD4803F082F941F294113C
:100CC000CA4803F077F910BD10B5CC48008881B24E
:100CD0004FF0804003F070F9C948008881B24FF0AE
:100CE000804003F06BF9C748008881B2BD4803F02B
:100CF00065F9C548008881B24FF0804003F060F983
:100D0000C248008881B2B84803F05AF9C048008848
:100D100081B2B44803F04EF9BE48008881B2B148B0
:100D200003F04AF9BC48008881B2B04803F046F9A4
:100D3000BA48008881B2AD4803F042F9B84800884B
:100D400081B2AA4803F036F910BD10B54FF42F61F7
:100D50004FF0804003F030F941F2F8114FF080403D
:100D600003F02CF940F648519E4803F027F94FF460
:100D70002F614FF0804003F023F941F2B4419A48CB
:100D800003F01EF941F27C51964803F013F941F249
:100D90004461944803F010F941F66411934803F05C
:100DA0000DF941F28831914803F00AF94FF4965158
:100DB0008E4803F0FFF810BD10B540F67A51480791
:100DC00003F0FAF840F6AC514FF0804003F0F6F82B
:100DD00040F64E41834803F0F1F84FF44861C805EE
:100DE00003F0EEF841F204017F4803F0E9F841F224
:100DF000D4717C4803F0DEF841F62C21794803F0E9
:100E0000DBF84FF4E151794803F0D8F841F2F811DA
:100E1000764803F0D5F840F6B831744803F0CAF8C4
:100E200010BD10B57548008881B24FF0804003F0C6
:100E3000C3F87348008881B24FF0804003F0BEF8D9
:100E40007048008881B2674803F0B8F86E4800889F
:100E500081B24FF0804003F0B3F86C48008881B253
:100E6000614803F0ADF86A48008881B25D4803F03C
:100E7000A1F86848008881B25A4803F09DF8664896
:100E8000008881B2594803F099F86448008881B21B
:100E9000564803F095F86248008881B2534803F041
:100EA00089F810BD10B55F48008881B24FF08040CE
:100EB00003F082F85C48008881B24FF0804003F074
:100EC0007DF85A48008881B2464803F077F85848C0
:100ED000008881B24FF0804003F072F855480088D6
:100EE00081B2414803F06CF85348008881B23D4814
:100EF00003F060F85148008881B23A4803F05CF88A
:100F00004F48008881B2394803F058F84D480088AE
:100F100081B2364803F054F84B48008881B2334818
:100F200003F048F810BD10B54848008881B24FF072
:100F3000804003F041F84648008881B24FF080407D
:100F400003F03CF84348008881B2264803F036F8A5
:100F50004148008881B24FF0804003F031F83F48AB
:100F6000008881B2204803F02BF83D48008881B208
:100F70001C4803F01FF83B48008881B2194803F071
:100F80001BF83948008881B2184803F017F8374831
:100F9000008881B2154803F013F83548008881B203
:100FA000124803F007F810BD10B54FF42F614FF051
:100FB000804003F001F840F6C411080702F0FEFF7C
:100FC00040F6B831074802F0F9FF40F63C714FF0A7
:100FD000804002F0F5FF41F24461034802F0F0FF67
:100FE00048E000000008004000040040000C004001
:100FF00094000020980000200034014018000020D8
:101000001C000020200000202400002028000020D8
:101010002C00002030000020340000203800002088
:101020003C00002040000020440000204800002038
:101030004C000020500000205400002058000020E8
:101040005C00002060000020640000206800002098
:101050006C00002070000020740000207800002048
:101060007C000020800000208400002088000020F8
:101070008C00002041F27C51874802F09BFF41F236
:101080004461854802F098FF41F66411834802F0FC
:1010900095FF41F28831814802F092FF4FF496515A
:1010A0007E4802F087FF10BD10B540F67A51480720
:1010B00002F082FF40F64851C80602F07FFF40F67A
:1010C0001C41754802F07AFF4FF44861C80502F0F0
:1010D00077FF41F20401724802F072FF41F2707131
:1010E0006D4802F067FF41F224316B4802F064FF63
:1010F00041F65831694802F061FF41F2707167486A
:1011000002F05EFF40F6B831644802F053FF10BDB4
:1011100010B56448008881B24FF0804002F04CFF67
:101120006148008881B24FF0804002F047FF5F487D
:10113000008881B2584802F041FF5D48008881B2C2
:101140004FF0804002F03CFF5A48008881B254487A
:1011500002F036FF5848008881B24F4802F02AFF5B
:101160005648008881B24C4802F026FF5448008857
:1011700081B24A4802F022FF5248008881B24748B3
:1011800002F01EFF5048008881B2444802F012FF6E
:1011900010BD10B54D48008881B24FF0804002F07C
:1011A0000BFF4B48008881B24FF0804002F006FFF1
:1011B0004848008881B2384802F000FF464800885D
:1011C00081B24FF0804002F0FBFE4448008881B2BB
:1011D000334802F0F5FE4248008881B22E4802F002
:1011E000E9FE4048008881B22B4802F0E5FE3E4807
:1011F000008881B2294802F0E1FE3C48008881B2B3
:10120000264802F0DDFE3A48008881B2234802F009
:10121000D1FE10BD10B53748008881B24FF0804034
:1012200002F0CAFE3448008881B24FF0804002F0DC
:10123000C5FE3248008881B2174802F0BFFE304830
:10124000008881B24FF0804002F0BAFE2D4800883D
:1012500081B2134802F0B4FE2B48008881B20E48D8
:1012600002F0A8FE2948008881B20B4802F0A4FED3
:101270002748008881B2094802F0A0FE254800886E
:1012800081B2064802F09CFE2348008881B20348E0
:1012900002F090FE10BD000000080040000C00406D
:1012A00000040040180000201C0000202000002046
:1012B00024000020280000202C0000203000002006
:1012C00034000020380000203C00002040000020B6
:1012D00044000020480000204C0000205000002066
:1012E00054000020580000205C0000206000002016
:1012F00064000020680000206C00002070000020C6
:1013000074000020780000207C0000208000002075
:1013100084000020880000208C0000207FB5054656
:101320000C460121102001F0B4FCADF80850ADF8D6
:1013300004400020ADF80A00ADF8060001A9FE48FF
:1013400002F044F836208DF8000000208DF80100EE
:1013500001208DF802008DF80300684601F0F9FEC7
:1013600001221146F44802F0A8FB0121F24802F0E4
:1013700089FB7FBD4FF44860F049086040F6AC50EF
:10138000EF49086040F6E440EE4908604FF46160C0
:10139000ED49086041F26800EC49086041F20C70C8
:1013A000EB49086041F24460EA49086041F69C005C
:1013B000E949086041F22430E849086041F294109C
:1013C000E7490860704710B50121DB4802F023FEB1
:1013D000002875D00121D84802F02EFEE14800789F
:1013E000012877D1D5480068D4490860D4480068FE
:1013F0005030D34908600846006841F27C51884269
:1014000001D9084601E0CE480068CD490860CD48C2
:1014100000684C30CB4908600846006841F25041F2
:10142000884201D9084601E0C6480068C5490860FD
:10143000C54800684030C44908600846006841F269
:101440005041884201D9084601E0BF480068BE49C2
:101450000860BE480068BD490860BD480068BC49D6
:101460000860BC4800684C38BA4908600846006803
:1014700040F6D861884201D2084601E0B5480068CC
:10148000B4490860B44800688438B3490860084625
:10149000006840F6B831884201D2084601E0AE4803
:1014A0000068AD490860AD4800684C38AB49086039
:1014B0000846006840F6B831884203D2084603E087
:1014C000F2E307E0A5480068A4490860A448006862
:1014D000A3490860A3480078022875D1974800689E
:1014E0009649086096480068503895490860084653
:1014F000006840F6AC51884201D2084601E09048AD
:1015000000688F4908608F4800684C388D49086032
:101510000846006840F6E441884201D2084601E0EE
:1015200088480068874908608748006840388649CD
:10153000086008460068B0F5616F02D24FF4616040
:1015400001E08148006880490860804800687F4960
:1015500008607F4800687E4908607E4800684C301B
:101560007C4908600846006841F24461884201D91C
:10157000084601E0774800687649086076480068C8
:101580008430754908600846006841F69C0188422D
:1015900001D9084601E0704800686F4908606F484B
:1015A00000684C306D4908600846006841F22431FB
:1015B000884201D9084601E0684800686749086028
:1015C00067480068664908606648007803287AD151
:1015D00065480078012877D1584800681038574985
:1015E000086008460068B0F52F6F02D24FF42F60F4
:1015F00001E05248006851490860514800682C30A9
:101600004F4908600846006841F2F811884201D944
:10161000084601E04A4800684949086049480068AE
:10162000001D484908600846006840F64851884255
:1016300001D9084601E04348006842490860424831
:10164000006820384049086008460068B0F52F6FF0
:1016500002D24FF42F6001E03B4800683A4908602D
:101660003A4800682C30394908600846006841F261
:10167000B441884201D9084601E034480068334942
:10168000086033480068103831490860084600682F
:1016900041F27C51884201D2084601E02C480068A2
:1016A0002B4908602B4800682A4908602A480068CE
:1016B0000830294908600846006841F664118842EC
:1016C00003D9084603E067E125E023480068224982
:1016D000086022480068001D20490860084600682C
:1016E00041F28831884201D9084601E01B48006870
:1016F0001A4908601A4800680C3019490860084601
:101700000068B0F5965F02D94FF4965001E0144896
:101710000068134908601448007802287DD11348F6
:1017200000681A30114908600846006840F67A518E
:1017300088421DD908461DE0001000401800002016
:101740001C00002020000020240000202800002091
:101750002C00002030000020340000203800002041
:101760003C000020000000209000002040000020ED
:10177000F7480068F6490860F64800682C38F549D3
:1017800008600846006840F6AC51884201D208461D
:1017900001E0F0480068EF490860EF4800680A3847
:1017A000ED4908600846006840F64E41884201D283
:1017B000084601E0E8480068E7490860E748006833
:1017C0001030E649086008460068B0F5486F02D955
:1017D0004FF4486001E0E1480068E0490860E048F3
:1017E00000683038DE4908600846006841F20401AC
:1017F000884201D2084601E0D9480068D84908600B
:10180000D84800681830D74908600846006841F297
:10181000D471884202D9084602E047E0D148006806
:10182000D0490860D04800682830CF490860084691
:10183000006841F62C21884201D9084601E0CA48D7
:101840000068C9490860C94800681C30C749086079
:1018500008460068B0F5E15F02D94FF4E15001E0BD
:10186000C2480068C1490860C14800681038C049D2
:1018700008600846006841F2F811884201D2084623
:1018800001E0BB480068BA490860BA4800684838B7
:10189000B84908600846006840F6B831884201D26D
:1018A000084601E0B3480068B2490860B2480078D1
:1018B000032871D1B14800680A38B0490860084669
:1018C0000068B0F5486F02D24FF4486001E0AB48C1
:1018D0000068AA490860AA480068A9490860084643
:1018E000006840F6AC51884201D2084601E0A448A5
:1018F0000068A3490860A3480068801DA1490860EA
:101900000846006840F6E441884201D9084601E0F3
:101910009C4800689B4908609B48006810309A49C1
:10192000086008460068B0F5616F02D94FF4616045
:1019300001E09548006894490860944800680830C0
:10194000924908600846006841F26801884201D95E
:10195000084601E08D4800688C4908608C480068A2
:1019600008388B4908600846006841F20C718842CB
:1019700001D2084601E0864800688549086085482C
:1019800000682838834908600846006841F24461CD
:10199000884202D2084602E036E07E4800687D496F
:1019A00008607D48006824387B4908600846006864
:1019B00041F69C01884201D2084601E07648006861
:1019C00075490860754800680C307449086008461D
:1019D000006841F22431884201D9084601E06F488D
:1019E00000686E4908606E4800683C306C490860C9
:1019F0000846006841F29411884201D9084601E086
:101A000067480068664908606648007804287AD10B
:101A100065480078012877D1644800681038634928
:101A2000086008460068B0F52F6F02D24FF42F60AF
:101A300001E05E4800685D4908605D48006828383C
:101A40005B4908600846006840F6C411884201D22C
:101A5000084601E056480068554908605548006846
:101A60000C38544908600846006840F6B83188428E
:101A700001D2084601E04F4800684E4908604E48D0
:101A800000680C304C4908600846006840F63C711C
:101A9000884201D9084601E0474800684649086085
:101AA000464800683C30454908600846006841F2F5
:101AB0004461884201D9084601E0404800683F4936
:101AC00008603F48006810383D49086008460068D3
:101AD00041F27C51884201D2084601E03848006852
:101AE000374908603748006836490860364800685A
:101AF0000830354908600846006841F6641188429C
:101B000003D9084603E090E168E02F4800682E49B9
:101B100008602E480068001D2C49086008460068CF
:101B200041F28831884201D9084601E0274800681F
:101B300026490860264800680C3025490860084698
:101B40000068B0F5965F45D94FF4965044E0000028
:101B50004000002044000020480000204C000020ED
:101B60005000002054000020580000205C0000209D
:101B70006000002064000020900000206800002029
:101B80006C0000207000002074000020780000200D
:101B90007C000020800000208400002088000020BD
:101BA0008C00002000000020910000201800002080
:101BB0001C0000202000002024000020280000201D
:101BC0002C000020300000203400002038000020CD
:101BD0003C000020FE480068FD490860FD48007890
:101BE000022873D1FC4800681A30FB490860084697
:101BF000006840F67A51884201D9084601E0F6486B
:101C00000068F5490860F54800682430F349086029
:101C10000846006840F64851884201D9084601E06C
:101C2000EE480068ED490860ED480068001DEC4989
:101C300008600846006840F61C41884201D9084601
:101C400001E0E7480068E6490860E64800681C389B
:101C5000E449086008460068B0F5486F02D24FF4C6
:101C6000486001E0DF480068DE490860DE4800683F
:101C70004038DD4908600846006841F204018842A6
:101C800001D2084601E0D8480068D7490860D74823
:101C900000681430D54908600846006841F2707148
:101CA000884202D9084602E003E1D0480068CF49E3
:101CB0000860CF4800682038CD49086008460068B1
:101CC00041F22431884202D2084602E036E0C84898
:101CD0000068C7490860C74800681430C5490860F3
:101CE0000846006841F65831884201D9084601E0AB
:101CF000C0480068BF490860BF4800682830BE4936
:101D000008600846006841F27071884201D90846AF
:101D100001E0B9480068B8490860B8480068483828
:101D2000B64908600846006840F6B831884201D2DA
:101D3000084601E0B1480068B0490860A54800784D
:101D4000032872D1AE4800680A38AD4908600846D9
:101D50000068B0F5486F02D24FF4486001E0A8482F
:101D60000068A7490860A7480068001DA5490860E9
:101D70000846006840F6AC51884201D9084601E0A7
:101D8000A04800689F4908609F48006808309E4945
:101D900008600846006840F6E441884201D90846D8
:101DA00001E0994800689849086098480068103038
:101DB0009649086008460068B0F5616F02D94FF493
:101DC000616001E0914800689049086090480068AF
:101DD000001D8F4908600846006841F2680188428A
:101DE00001D9084601E08A480068894908608948A5
:101DF0000068001F874908600846006841F20C71BE
:101E0000884201D2084601E08248006881490860A2
:101E1000814800682030804908600846006841F227
:101E20004461884202D9084602E036E07A480068F8
:101E300079490860794800681C3878490860084684
:101E4000006841F69C01884201D2084601E07348CF
:101E5000006872490860724800682C387049086050
:101E60000846006841F22431884201D2084601E068
:101E70006B4800686A4908606A4800683C306949F4
:101E800008600846006841F29411884201D908466A
:101E900001E0644800686349086063480068C82836
:101EA00002D90020604908605F480068401C5E4914
:101EB000086010BD7FB505460C460121202000F0CA
:101EC000E8FEADF80850ADF804400020ADF80A0077
:101ED000ADF8060001A9554801F078FA37208DF8D1
:101EE000000000208DF8010002208DF80200012082
:101EF0008DF80300684601F02CF9012211464B4889
:101F000001F0DBFD0121494801F0BCFD7FBD10B5AA
:101F10000121464802F07FF8002856D001214348AD
:101F200002F08AF84248007803284FD141480078EF
:101F3000012831D14048006828282DD94FF42F605E
:101F40002549086041F2F8102449086040F64850DD
:101F5000234908604FF42F602249086041F2B440E1
:101F60002149086041F27C502049086041F24460F8
:101F70001F49086041F664101E49086041F288302C
:101F80001D4908604FF496501C49086002202949F9
:101F900008700020284908602648007802286BD184
:101FA00025480068282867D940F67A501449086007
:101FB00040F6AC501349086040F64E4012490860A4
:101FC0004FF448601149086038E099E18AE0000068
:101FD0003C00002091000020400000204400002030
:101FE000480000204C000020500000205400002039
:101FF000580000205C0000206000002064000020E9
:10200000680000206C000020700000207400002098
:10201000780000207C000020800000208400002048
:10202000880000208C0000209C000020001400404C
:102030000000002090000020A000002041F20400D9
:10204000B049086041F2D470AF49086041F62C20D5
:10205000AE4908604FF4E150AD49086041F2F81014
:10206000AC49086040F6B830AB4908600320AB4982
:1020700008700020AA490860A8480078032831D1D8
:10208000A748006828282DD94FF44860A549086062
:1020900040F6AC50A449086040F6E440A34908600B
:1020A0004FF46160A249086041F26800A1490860EC
:1020B00041F20C70A049086041F244609F490860F9
:1020C00041F69C009E49086041F224309D49086019
:1020D00041F294109C49086001209049087000204A
:1020E0008F4908609948007804287DD19848007885
:1020F000012831D18A48006828282DD94FF42F6053
:102100009449086040F6C4109349086040F6B8301E
:102110009249086040F63C709149086041F2446081
:102120009049086041F27C508F49086041F2446058
:102130008E49086041F664108D49086041F288308C
:102140008C4908604FF496508B4908600220804902
:1021500008700020724908607D480078022830D15C
:102160006F48006828282CD940F67A5083490860C7
:1021700040F648508249086040F61C40814908609A
:102180004FF448608049086041F204005D490860EE
:1021900041F270705C49086041F224305B4908608C
:1021A00041F658305A49086041F270705949086048
:1021B00040105949086003206549087000205849BB
:1021C000086063480078032833D155480068282800
:1021D0002FD94FF448605349086040F6AC5052493B
:1021E000086040F6E44000E023E0504908604FF406
:1021F00061604F49086041F268004E49086041F251
:102200000C704D49086041F244604C49086041F649
:102210009C004B49086041F224304A49086041F271
:1022200094104949086001204949087000203C4940
:1022300008604648007801282AD1394800683228C9
:1022400026D94FF448603749086041F27C5036493E
:10225000086041F25040354908603549086041F254
:1022600068003449086041F20C703349086040F658
:10227000D8603249086040F6B830314908603149C9
:10228000086041F294103049086000202449086039
:102290002E48007802282ED12148006832282AD9F9
:1022A0004FF448601F49086040F6AC501E49086072
:1022B00040F6E4401D4908604FF461601C49086025
:1022C00041F268001B49086041F20C701A4908602D
:1022D00041F244601949086041F69C0018490860C1
:1022E00041F224301749086041F294101649086001
:1022F00000200B4908600A480068401C0849086033
:1023000010BD0000780000207C000020800000202C
:1023100084000020880000208C0000209000002015
:10232000A0000020180000201C0000202000002039
:1023300024000020280000202C0000203000002075
:1023400034000020380000203C0000200000002065
:1023500091000020400000204400002048000020A0
:102360004C000020500000205400002058000020A5
:102370005C00002060000020640000206800002055
:102380006C000020700000207400002010B56FF079
:10239000040000F028FF2E4800682E49B0FBF1F041
:1023A0002D4908700846007800EB4001C1EBC010D1
:1023B0004FF6FF7101EAC0002849088010BD0146B0
:1023C000254A12784A434FF0E0235A6100229A616D
:1023D0001A46126942F001021A6100BF4FF0E02272
:1023E000106900F001021AB100F48032002AF5D021
:1023F0004FF0E022126922F001024FF0E0231A614F
:1024000000229A6170470146144A12884A434FF0ED
:10241000E0235A6100229A611A46126942F00102D1
:102420001A6100BF4FF0E022106900F001021AB1FA
:1024300000F48032002AF5D04FF0E022126922F039
:1024400001024FF0E0231A6100229A6170470000F8
:102450000400002000127A00A4000020A600002042
:10246000014600BF704700BF5E4A128802F040027A
:10247000002AF9D0C2B25B4B1B1D1A80704710B501
:1024800086B00446012144F2040000F0F5FB04206C
:10249000ADF8140003208DF8160018208DF81700F1
:1024A00005A9514800F02CF90820ADF814000420CB
:1024B0008DF8170005A94C4800F022F926208DF868
:1024C000000000208DF8010001208DF802008DF839
:1024D0000300684600F03DFE01940020ADF80800BE
:1024E000ADF80A00ADF80C00ADF810000C20ADF806
:1024F0000E0001A93D4800F066FC012240F2255182
:102500003A4800F0F8FC0121384800F0E8FC06B039
:1025100010BD10B540F22551344800F0D1FD20B176
:10252000324800F04DFD3249087010BD10B586B03C
:1025300004460121080500F0ACFB0121302000F029
:102540009BFB4FF48050ADF8140001208DF816006D
:1025500018208DF8170005A9264800F0D1F80420AE
:10256000ADF8140048208DF8170005A9224800F0A6
:10257000C7F835208DF8100000208DF811000320D9
:102580008DF8120001208DF8130004A800F0E1FD81
:1025900000940020ADF80400ADF80600ADF8080086
:1025A000ADF80C000C20ADF80A006946134800F0A5
:1025B0000AFC012240F22551104800F09CFC012148
:1025C0000E4800F08CFC06B010BD10B540F225514D
:1025D0000A4800F075FD18B1084880880449087061
:1025E00010BD0000003801400008014000440040D8
:1025F000AE000020001001400014014000500040D7
:102600000948804709480047FEE7FEE7FEE7FEE786
:10261000FEE7FEE7FEE7FEE7FEE7FEE704480549C2
:10262000054A064B70470000EF030008310100081F
:10263000280100202807002028030020280300206C
:1026400010B50446CC48844208D10121042000F092
:102650002DFB0021042000F029FB46E0C7488442FE
:1026600008D10121082000F021FB0021082000F002
:102670001DFB3AE0C248844208D10121102000F03D
:1026800015FB0021102000F011FB2EE0BD48844214
:1026900008D10121202000F009FB0021202000F0BA
:1026A00005FB22E0B848844208D10121402000F017
:1026B000FDFA0021402000F0F9FA16E0B348844208
:1026C00008D10121802000F0F1FA0021802000F0E3
:1026D000EDFA0AE0AE48844207D10121801500F0EE
:1026E000E5FA0021A01500F0E1FA10BD10B50121B6
:1026F000084600F0DBFA0021012000F0D7FA10BDF7
:102700002DE9F04102460025002600200023002488
:10271000002791F803C00CF00F0591F803C00CF0EE
:10272000100CBCF1000F03D091F802C04CEA050573
:1027300091F800C0BCF1000F31D0146800202BE0EC
:102740004FF0010C0CFA00F3B1F800C00CEA0306DC
:102750009E4220D183004FF00F0C0CFA03F7BC43CC
:1027600005FA03FC4CEA040491F803C0BCF1280FFD
:1027700006D14FF0010C0CFA00FCC2F814C00AE0BC
:1027800091F803C0BCF1480F05D14FF0010C0CFAD1
:1027900000FCC2F810C0401C0828D1D31460B1F866
:1027A00000C0BCF1FF0F34DD546800202EE000F1C2
:1027B000080C4FF0010808FA0CF3B1F800C00CEA5D
:1027C00003069E4221D183004FF00F0C0CFA03F751
:1027D000BC4305FA03FC4CEA040491F803C0BCF1C5
:1027E000280F05D100F1080C08FA0CF8C2F8148083
:1027F00091F803C0BCF1480F07D100F1080C4FF06D
:10280000010808FA0CF8C2F81080401C0828CED342
:102810005460BDE8F0814FF6FF71018002218170A4
:102820000421C17070470246002093680B400BB131
:10283000012000E0002070470146886880B27047A0
:1028400002460020D3680B400BB1012000E00020BD
:1028500070470146C86880B27047016170474161A6
:1028600070470AB1016100E041617047C160704783
:102870004FF480320A438261816182618269826998
:10288000704702460020434B18684FF6807318408B
:1028900040EA021008433F4B186070473E49C86148
:1028A0007047F0B50A46002300240021002500F0FF
:1028B0000046B6F1004F02D1364EF16901E0354EC7
:1028C0007168C0F3034583B200F44016B6F5401FAB
:1028D00008D121F070612F4E766826F070662D4F7A
:1028E0007E6012E000F48016B6F5801F06D1032644
:1028F00006FA05F4A14341F0706106E0460D360189
:1029000003FA06F6B14341F0706122B1460D36017B
:1029100003FA06F6314300F00046B6F1004F02D14B
:102920001C4EF16101E01B4E7160F0BD30B500221C
:102930008B071C0F0F2303FA04F2164B08338C107D
:1029400053F824309343134C08348D1044F8253049
:1029500023468C1053F824308C07240F00FA04F41B
:1029600023430C4C08348D1044F8253030BD0A49FF
:10297000DC3108607047000000080140000C014095
:10298000001001400014014000180140001C0140EB
:10299000002001400000014000002042DF480068A4
:1029A00040F00100DD49086008464068DC49084005
:1029B000DA49486008460068DA490840D7490860A3
:1029C0000846006820F4802008600846406820F42B
:1029D000FE0048604FF41F0088607047CF490968C7
:1029E00021F48031CD4A11601146096821F480211B
:1029F0001160B0F5803F03D0B0F5802F0ED106E016
:102A0000C649096841F48031C44A116007E0C349EE
:102A1000096841F4A021C14A116000E000BF00BF75
:102A2000704710B501460022002300204A11012AF8
:102A300002D1BA4C236806E0022A02D1B74C236ABD
:102A400001E0B64C636A01F01F02012494401C406F
:102A50000CB1012000E0002010BD38B5002000902E
:102A60000024002500BF3120FFF7DBFF054600985A
:102A7000401C00900098B0F5A06F01D0002DF2D05E
:102A80003120FFF7CEFF08B1012400E000242046EA
:102A900038BD01460020A14A106820F0F80040EA45
:102AA000C10010607047A0490860704702460020CE
:102AB0009A4B586820F47C1042EA01031843974B64
:102AC0005860704798490866704701460020934A4D
:102AD000506820F003000843506070478F484068FA
:102AE00000F00C007047014600208C4A506820F02E
:102AF000F00008435060704701460020874A506844
:102B000020F4E06008435060704701460020834A8B
:102B1000506820F4605040EAC1005060704729B10D
:102B20007E4A527A02437D4B5A7204E07B4A527AC3
:102B300082437A4B5A7270477B49D831086070479C
:102B400001460020754A506820F440400843506018
:102B500070470021714A20321170704A82F82010AB
:102B6000012802D004280AD104E001216B4A203256
:102B7000117005E00521694A2032117000E000BFA4
:102B800000BF70476949086070476449096A01439A
:102B9000624A11627047654944390860704730B530
:102BA00000210022002400235C4D6D6805F00C011B
:102BB00021B1042905D0082923D105E05C4D056029
:102BC00022E05B4D05601FE0544D6D6805F4701206
:102BD000524D6D6805F48034022505EB92421CB914
:102BE000544D554305600BE04C4D6D6805F40035C0
:102BF0001DB1504D5543056002E04D4D55430560F4
:102C000002E04B4D056000BF00BF444D6D6805F00C
:102C1000F0010909484D6B5C0568DD4045603F4D9A
:102C20006D6805F4E061090A434D6B5C4568DD4061
:102C300085603A4D6D6805F46051C90A3E4D6B5C84
:102C40004568DD40C560354D6D6805F44041890B30
:102C50003A4D6B5CC568B5FBF3F5056130BD29B134
:102C60002E4A526902432D4B5A6104E02B4A5269A5
:102C700082432A4B5A61704729B1284A926902431C
:102C8000264B9A6104E0254A92698243234B9A615C
:102C9000704729B1214AD2690243204BDA6104E02E
:102CA0001E4AD26982431D4BDA61704729B11B4A23
:102CB000D2680243194BDA6004E0184AD2688243B2
:102CC000164BDA60704729B1144A12690243134B5C
:102CD0001A6104E0114A12698243104B1A6170476D
:102CE00012494039086070470F49C86470470B4962
:102CF000C87170470948406A40F0807007494862CF
:102D0000704701460020054A92680A400AB1012036
:102D100000E00020704701498872704700100240AF
:102D20000000FFF8FFFFF6FE00004242800442422E
:102D300000127A0000093D00AF000020BF00002013
:102D400010B50446FB48844209D101218803FFF7EE
:102D5000ADFF00214FF48040FFF7A8FF32E0F648B6
:102D6000844209D101214804FFF7ADFF00214FF44F
:102D70000030FFF7A8FF25E0F048844209D1012187
:102D80008804FFF7A0FF00214FF48020FFF79BFF8E
:102D900018E0EB48844209D10121C804FFF793FFF2
:102DA00000214FF40020FFF78EFF0BE0E54884423E
:102DB00008D101210805FFF786FF00214FF480109C
:102DC000FFF781FF10BD2DE9F04786B005460E469E
:102DD0000024A24600BFA1460027B08900B100BF71
:102DE0002F462C8A4CF6FF700440F08804432C8256
:102DF000AC894EF6F3100440B088318908437189DC
:102E000008430443AC81AC8A4FF6FF400440B089CC
:102E10000443AC8201A8FFF7C2FEC648874202D134
:102E2000DDF810A001E0DDF80CA0A88900F4004056
:102E300040B10AEBCA0000EB0A1031684900B0FB50
:102E4000F1F807E00AEBCA0000EB0A1031688900CC
:102E5000B0FBF1F86420B8FBF0F004012009642114
:102E600001FB1089A88900F4004040B1322000EB3A
:102E7000C900B0FBF1F000F00700044308E0322085
:102E800000EB09106421B0FBF1F000F00F000443E7
:102E90002C8106B0BDE8F0874FF416510160002187
:102EA0008180C18001810C21418100218181704795
:102EB00010B502460020108A4FF2FF0318400B881D
:102EC0004C8823438C882343CC88234318431082A7
:102ED00010BD0021018041808180C180704721B1F7
:102EE000828942F40052828104E082894DF6FF73A8
:102EF0001A4082817047F0B5034600240026002561
:102F0000002040F66A17B94200D100BF1846C1F34D
:102F1000421401F01F06012707FA06F5012C01D122
:102F20000C3004E0022C01D1103000E014301AB152
:102F300007682F43076002E00768AF430760F0BDF2
:102F40001AB1838A0B43838202E0838A8B43838294
:102F50007047028A4FF6F0731A400282028A0A43CF
:102F60000282704782894FF2FF731A408281828900
:102F70000A438281704721B1828942F00202828134
:102F800004E082894FF6FD731A4082817047028AFD
:102F90004FF6DF731A400282028A0A4302827047A8
:102FA00021B1028A42F48042028204E0028A4BF696
:102FB000FF731A4002827047C1F308028280704793
:102FC00001468888C0F308007047818941F00101FB
:102FD00081817047028BD2B20283028B42EA0122C6
:102FE00002837047028B02F47F420283028B0A4302
:102FF0000283704721B1828A42F02002828204E07B
:10300000828A4FF6DF731A408282704721B1828A2A
:1030100042F01002828204E0828A4FF6EF731A4077
:103020008282704721B1828A42F00802828204E0E3
:10303000828A4FF6F7731A408282704721B18289E3
:1030400042F40042828103E08289C2F30E0282814F
:10305000704721B1828A42F40062828204E0828A4F
:103060004FF2FF731A4082827047828A4FF6FB73D9
:103070001A408282828A0A438282704721B1828A00
:1030800042F00202828204E0828A4FF6FD731A4007
:103090008282704702460020B1F5007F00D100BF58
:1030A00013880B400BB1012000E00020704701F4B1
:1030B0000072B2F5007F00D100BFCA4302807047A2
:1030C00070B50246002400230025002040F66A1651
:1030D000B14200D100BFC1F3421501F01F03012628
:1030E00006FA03F3012D02D19689334006E0022D42
:1030F00002D1168A334001E0968A33400C12012631
:1031000006FA04F41688344013B10CB1012000E033
:10311000002070BD10B50022002340F66A14A142C1
:1031200000D100BF0A1201249440A3B2DC43048002
:1031300010BD00000038014000440040004800403D
:10314000004C00400050004031490143314A1160B9
:10315000704770B5002100230F22C47804B32D4CB2
:10316000246804F4E064C4F5E064210AC1F10403B6
:10317000CA40447804FA03F18478144021430901D9
:10318000254C0678A155047804F01F050124AC40B5
:1031900005786D11AD0005F1E025C5F8004109E0A5
:1031A000047804F01F050124AC401C4D067876110C
:1031B00045F8264070BD1A4A0A400243154B1B1FB2
:1031C0001A60704739B1134A121D12680243114B3D
:1031D0001B1D1A6006E00F4A121D126882430D4B38
:1031E0001B1D1A607047042808D14FF0E0210969BF
:1031F00041F004014FF0E022116107E04FF0E021BF
:10320000096921F004014FF0E022116170470000CC
:103210000000FA050CED00E000E400E080E100E0D1
:1032200080FFFF1F10B50446FE48844208D10121EB
:10323000C014FFF73BFD0021E014FFF737FDC4E0A9
:10324000B4F1804F08D101210846FFF73CFD002171
:103250000120FFF738FDB8E0F348844208D101218E
:103260000220FFF730FD00210220FFF72CFDACE02B
:10327000EE48844208D101210420FFF724FD0021FB
:103280000420FFF720FDA0E0E948844208D1012195
:103290000820FFF718FD00210820FFF714FD94E037
:1032A000E448844208D101211020FFF70CFD0021E1
:1032B0001020FFF708FD88E0DF48844208D1012193
:1032C0002020FFF700FD00212020FFF7FCFC7CE020
:1032D000DA48844208D101214014FFF7E7FC0021BD
:1032E0006014FFF7E3FC70E0D548844209D1012166
:1032F000C804FFF7DBFC00214FF40020FFF7D6FCE9
:1033000063E0D048844209D101210805FFF7CEFCD3
:1033100000214FF48010FFF7C9FC56E0CA488442F0
:1033200009D101214805FFF7C1FC00214FF400102D
:10333000FFF7BCFC49E0C548844208D10121402088
:10334000FFF7C1FC00214020FFF7BDFC3DE0C04875
:10335000844208D101218020FFF7B5FC00218020A4
:10336000FFF7B1FC31E0BB48844208D10121801550
:10337000FFF7A9FC0021A015FFF7A5FC25E0B64842
:10338000844209D101210804FFF790FC00214FF489
:103390008030FFF78BFC18E0B048844209D101214E
:1033A0004804FFF783FC00214FF40030FFF77EFC58
:1033B0000BE0AB48844208D101218804FFF776FC7A
:1033C00000214FF48020FFF771FC10BD002202881D
:1033D000944B98420ED0994B98420BD0B0F1804F4D
:1033E00008D0914B984205D0904B984202D0904B18
:1033F000984204D14FF68F731A404B881A438D4B75
:10340000984207D08C4B984204D04FF6FF431A40A5
:10341000CB881A4302808B8883850B880385814B78
:1034200098420BD0854B984208D08B4B984205D0E0
:103430008A4B984202D08A4B984201D10B7A03867C
:1034400001238382704770B5002400220023058C7D
:103450004FF6FE7635400584028C8388048B4FF648
:103460008F752C40B51E2C400D882C43751E2A40AC
:103470000D892A434D882A436A4DA8420BD06F4DCF
:10348000A84208D0744DA84205D0744DA84202D07D
:10349000734DA84213D14FF6F7752A404D892A4340
:1034A0004FF6FB752A408D882A434FF6FF652B4067
:1034B0004FF6FF552B408D892B43CD892B438380BD
:1034C0000483CD888586028470BD70B500240022F7
:1034D0000023058C4FF6EF7635400584028C8388F7
:1034E000048B48F6FF752C404FF6FF452C400D88A5
:1034F0004FF6FF7606EA05252C434FF6DF752A4086
:103500000D8906EA05152A434D8806EA05152A4362
:10351000444DA84202D0494DA8421DD14FF67F75B7
:103520002A404D894FF6FF7606EA05152A434FF6E5
:10353000BF752A408D8806EA05152A434FF6FF35E8
:103540002B404FF2FF752B408D8906EA85052B43F2
:10355000CD8906EA85052B4383800483CD880587C2
:10356000028470BD70B5002400220023058C4FF644
:10357000FF6635400584028C8388848B4FF68F75F7
:103580002C404FF6FC752C400D882C434FF6FF5510
:103590002A400D894FF6FF7606EA05252A434D8815
:1035A00006EA05252A431F4DA84202D0234DA84212
:1035B0001DD14FF2FF752A404D894FF6FF7606EA7E
:1035C00005252A434FF6FF352A408D8806EA052552
:1035D0002A434EF6FF752B404DF6FF752B408D8923
:1035E00006EA05152B43CD8906EA05152B43838092
:1035F0008483CD888587028470BD70B50022002346
:103600000024058C4EF6FF7635400584038C8488B3
:10361000828B48F6FF752A404FF6FF452A400D88F9
:1036200020E00000002C01400004004000080040A1
:10363000000C004000100040001400400034014025
:10364000004C01400050014000540140001800406F
:10365000001C0040002000400040014000440140A8
:10366000004801404FF6FF7606EA05252A434DF64D
:10367000FF752B400D8906EA05352B434D8806EA78
:1036800005352B43FA4DA84202D0FA4DA84208D185
:103690004BF6FF752C408D894FF6FF7606EA8515AF
:1036A0002C4384808283CD88A0F84050038470BD71
:1036B000828B4FF2FF331A408283828B4FF6FF7367
:1036C00003EA01231A4382837047F0B50C4615467E
:1036D000002200210026078C4EF6FF7C07EA0C072B
:1036E0000784828B018C4FF6FF7707EA043640F699
:1036F000FF473A404FF6FF7707EA05273A434FF670
:10370000FF7707EA03373A43D94FB8420ED0D94F73
:10371000B8420BD0B0F1804F08D0D74FB84205D097
:10372000D64FB84202D0D64FB84206D14DF6FF77F9
:10373000394046F48057394305E047F6FF57394092
:1037400044F48057394382830184F0BD828B4FF665
:10375000F3731A408283828B0A4382837047F0B5E9
:103760000C461546002200210026078C4FF6FF6C00
:1037700007EA0C070784828B018C4FF6FF7707EA74
:1037800004264FF60C773A404FF6FF7707EA031707
:103790002F433A43B64FB8420ED0B64FB8420BD083
:1037A000B0F1804F08D0B44FB84205D0B34FB84203
:1037B00002D0B34FB84206D14FF6FF57394046F416
:1037C0008077394305E04FF2FF57394044F4807762
:1037D000394382830184F0BD028B4FF2FF331A40DC
:1037E0000283028B4FF6FF7303EA01231A4302831D
:1037F0007047F0B50C461546002200210026078CC4
:103800004FF6EF7C07EA0C070784028B018C4FF61A
:10381000FF7707EA041640F6FF473A404FF6FF7776
:1038200007EA03373A434FF6FF7707EA05273A439B
:103830008F4FB8420ED08F4FB8420BD0B0F1804FAF
:1038400008D08D4FB84205D08C4FB84202D08C4F73
:10385000B84206D14FF6DF77394046F010073943BA
:1038600005E04FF65F77394044F010073943028393
:103870000184F0BD028B4FF6F3731A400283028B72
:103880000A4302837047F0B50C461546002200211A
:10389000068C4FF6FE773E400684028B018C4FF675
:1038A0000C7632407E1C06EA03162E433243704EDD
:1038B000B0420ED06F4EB0420BD0B0F1804F08D066
:1038C0006D4EB04205D06D4EB04202D06C4EB0424B
:1038D00006D14FF6FD76314044F00106314305E054
:1038E0004FF6F576314044F00106314302830184FE
:1038F000F0BD70B505460C465D4885420ED05D486A
:1039000085420BD0B5F1804F08D05B48854205D089
:103910005A48854202D05A48854200D100E000BF93
:10392000208850B92389A28861882846FFF7ABFF19
:10393000E1882846FFF79EFF25E0208804280AD169
:103940002389A28861882846FFF753FFE18828462B
:10395000FFF742FF17E0208808280AD12389A288B0
:1039600061882846FFF7FBFEE1882846FFF7EEFE58
:1039700009E02389A28861882846FFF7A6FEE1882E
:103980002846FFF795FE70BD2DE9F04105460C462F
:1039900000260127608808B9022600E00026A088DA
:1039A000012801D1022700E001272088A0B923893E
:1039B000A28861882846FFF766FFE1882846FFF75E
:1039C00059FF23893A4631462846FFF712FFE1881E
:1039D0002846FFF701FF13E02389A2886188284663
:1039E000FFF707FFE1882846FFF7F6FE23893A46EE
:1039F00031462846FFF747FFE1882846FFF73AFFA0
:103A0000BDE8F0810A884B881A438B881A43CB881B
:103A10001A430B891A434B891A438B891A43A0F81E
:103A2000442070474FF6FF71818000210180C180E2
:103A30004180017270470021018041808180C180F6
:103A4000018141818181C1817047002101804180D4
:103A5000012181800021C180018170470021018006
:103A600041808180C1800181418181817047000056
:103A7000002C0140003401400004004000080040D8
:103A8000000C004021B1028842F00102028004E0F3
:103A900002884FF6FE731A400280704731B1B0F8C9
:103AA000442042F40042A0F8442005E0B0F844204D
:103AB000C2F30E02A0F8442070471AB183890B4369
:103AC000838102E083898B438381704781827047C1
:103AD00041EA0203A0F8483070471AB183890B43CA
:103AE000838102E083898B438381704701894FF68C
:103AF000F8721140018170470A46002101894FF692
:103B00008F73194011430181704730B504460D464B
:103B100029462046FFF7F0FF208940F0070020816A
:103B200030BD2DE9F04104460D4616461F46602D76
:103B300006D13B46012231462046FFF75AFE05E0FA
:103B40003B46012231462046FFF79DFE294620468E
:103B5000FFF7D2FF208940F007002081BDE8F08107
:103B600030B50C4600210189C9B24FF6FF7505EA50
:103B70000325154325432943018130BD2DE9F0413B
:103B800005460E4617469846002443463A463146B7
:103B90002846FFF7E5FF2C894FF6F870044044F003
:103BA00007044FF68F70044044F070042C81BDE888
:103BB000F081F0B504460D4616461F463B46324698
:103BC00029462046FFF7CCFF208940F48040208121
:103BD000F0BD0185828270470A46002101884FF6B8
:103BE0008F731940114301807047F0B50C4615469C
:103BF0001E460021002200230189028B038C4FF610
:103C0000F877394021434FF6FC473A4040F201171C
:103C10003A434FF6DD773B404FF6FF7707EA06174A
:103C20002F433B43018102830384F0BD0A460021F8
:103C3000018B4FF68F7319401143018370470A4679
:103C40000021018B48F6FF7319404FF6FF7303EA1A
:103C500002231943018370470A460021818B4FF6E6
:103C60008F7319401143818370470A460021818B6D
:103C700048F6FF7319404FF6FF7303EA0223194316
:103C80008183704721B1028842F08002028004E003
:103C900002884FF67F731A400280704721B18288F4
:103CA00042F00402828004E082884FF6FB731A40DF
:103CB0008280704721B1828842F00802828004E04D
:103CC00082884FF6F7731A408280704721B182884C
:103CD00042F00102828004E082884FF6FE731A40AF
:103CE000828070470A460021018B4FF6F773194016
:103CF0001143018370470A460021018B4FF2FF7385
:103D000019404FF6FF7303EA0223194301837047FA
:103D10000A460021818B4FF6F773194011438183C6
:103D200070470A460021818B4FF2FF7319404FF60E
:103D3000FF7303EA02231943818370470A46002177
:103D4000018B4FF6FB7319401143018370470A46FC
:103D50000021018B4FF6FF3319404FF6FF7303EA42
:103D600002231943018370470A460021818B4FF6D5
:103D7000FB7319401143818370470A460021818BF0
:103D80004FF6FF3319404FF6FF7303EA022319433E
:103D9000818370470A460021018B4FF67F731940DB
:103DA0001143018370470A460021018BC1F30E01C4
:103DB0004FF6FF7303EA02231943018370470A4653
:103DC0000021818B4FF67F73194011438183704727
:103DD0000A460021818BC1F30E014FF6FF7303EAFF
:103DE00002231943818370470A460021018C4FF654
:103DF000FD7319401143018470470A460021018C6C
:103E00004FF6F77319401143018470470A460021A9
:103E1000018C4FF6DF7319404FF6FF7303EA02136C
:103E20001943018470470A460021018C4FF67F73C5
:103E300019404FF6FF7303EA0213194301847047D8
:103E40000A460021018C4FF6FF5319404FF6FF73CD
:103E500003EA02231943018470470A460021018CBA
:103E60004FF2FF7319404FF6FF7303EA0223194321
:103E7000018470470A460021018C4DF6FF731940FA
:103E80004FF6FF7303EA023319430184704730B5DC
:103E9000002301248C40A3B2048C9C430484048C32
:103EA00002FA01F5ADB22C43048430BD30B50023D5
:103EB00004248C40A3B2048C9C430484048C02FA36
:103EC00001F5ADB22C43048430BD70B5034600202B
:103ED00000241846183001258D40ACB21D8CA54336
:103EE0001D8409B1082909D100EB6100056825F09E
:103EF000700505600568154305600EE00D1FC5F3EC
:103F00004E052844056825F4E045056005684FF630
:103F1000FF7606EA02263543056070BD21B10288AE
:103F200042F00202028004E002884FF6FD731A405C
:103F30000280704721B1028842F00402028004E04E
:103F400002884FF6FB731A400280704721B18288C5
:103F500042F08002828004E082884FF67F731A402C
:103F60008280704702884FF6F7731A4002800288F9
:103F70000A430280704782884FF68F731A4082800E
:103F800082880A438280704702894FF6F8731A408C
:103F9000028102890A430281704702894FF67F73CA
:103FA0001A40028102890A43028170478184704766
:103FB0008185704781867047018770478187704788
:103FC000A0F84010704702884FF6FF431A40028065
:103FD00002880A43028070470146888E7047014676
:103FE000088F70470146888F70470146B1F840003E
:103FF00070470146888C70470146088D704702461D
:104000000020138A0B400BB1012000E00020704714
:10401000CA430282704730B50246002000230024C4
:10402000158A05EA0103958905EA010413B10CB16B
:10403000012000E0002030BDCA4302827047704773
:104040007047704770477047754600F02BF8AE46D2
:1040500005006946534620F00700854618B020B594
:10406000FEF7DCFABDE820404FF000064FF00007F5
:104070004FF000084FF0000B21F00701AC46ACE810
:10408000C009ACE8C009ACE8C009ACE8C0098D467D
:10409000704710B50446AFF300802046BDE81040DD
:1040A000FCF78DB800487047C4000020CC400008E1
:1040B00000000020C40000006C01000890410008CE
:1040C000C400002064060000880100080000000011
:1040D00000A24A04000000000000000001020304E6
:1040E00006070809000000000000000000000000B2
:1040F00000000000000000000000000000000000C0
:1041000000000000000000000000000000000000AF
:10411000000000000000000000000000000000009F
:10412000000000000000000000000000000000008F
:10413000000000000000000000000000000000007F
:10414000000000000000000000000000000000006F
:10415000000000000000000000000000010100005D
:10416000000000000000000000000000000000004F
:10417000000000000000000000000000000000013E
:1041800002030401020304060708090204060800EA
:0400000508000131BD
:00000001FF
